:020000040800F2
:1000000000200020C50500088D05000893050008A4
:1000100000000000000000000000000000000000E0
:10002000000000000000000000000000990500082A
:100030000000000000000000A3050008AD05000856
:100040001506000815060008150600081506000824
:100050001506000815060008150600081506000814
:100060001506000815060008150600081506000804
:1000700015060008150600081506000815060008F4
:100080001506000815060008000000001506000807
:1000900015060008150600081506000815060008D4
:1000A00015060008150600081506000815060008C4
:1000B00015060008000000001506000800000000FA
:1000C00010B5064C2378002B07D1054B002B02D02E
:1000D000044800E000BF0123237010BD0C00002085
:1000E000000000001C190008044B10B5002B03D0C1
:1000F0000349044800E000BF10BDC04600000000F6
:10010000100000201C190008002243088B4274D301
:1001100003098B425FD3030A8B4244D3030B8B4208
:1001200028D3030C8B420DD3FF22090212BA030C11
:100130008B4202D31212090265D0030B8B4219D3F2
:1001400000E0090AC30B8B4201D3CB03C01A524112
:10015000830B8B4201D38B03C01A5241430B8B425A
:1001600001D34B03C01A5241030B8B4201D30B0343
:10017000C01A5241C30A8B4201D3CB02C01A52416A
:10018000830A8B4201D38B02C01A5241430A8B422D
:1001900001D34B02C01A5241030A8B4201D30B0216
:1001A000C01A5241CDD2C3098B4201D3CB01C01A30
:1001B000524183098B4201D38B01C01A524143093A
:1001C0008B4201D34B01C01A524103098B4201D328
:1001D0000B01C01A5241C3088B4201D3CB00C01A95
:1001E000524183088B4201D38B00C01A524143080D
:1001F0008B4201D34B00C01A5241411A00D2014632
:10020000524110467047FFE701B5002000F006F8A4
:1002100002BDC0460029F7D076E770477047C04658
:1002200080B500AF00F0F8F900F018F800F0B8F869
:1002300000F05AF8084B01220121180000F0E6FEF8
:10024000FA235B00180000F04BFA034B0022012157
:10025000180000F0DBFEEDE70004004890B591B017
:1002600000AF10243B19180030231A00002101F0C0
:1002700029FB3B00180010231A00002101F022FB8B
:1002800021007B1812221A607B180122DA607B1889
:1002900001225A617B1810221A617B1810229A6180
:1002A0007B1800221A627B18180000F0CDFE031E96
:1002B00001D000F0FBF83B0007221A603B0000224F
:1002C0005A603B0000229A603B000022DA603B004B
:1002D0000021180001F0D2F9031E01D000F0E6F869
:1002E000C046BD4611B090BD80B584B000AF3B1D87
:1002F00018000C231A00002101F0E4FA264B274ACB
:100300001A60254B00225A60234B00229A60224B30
:100310000022DA60204B01221A611F4B04225A612D
:100320001D4B00221A761C4B00225A761A4B0022D3
:100330009A76194B0022DA76174BC222FF32DA6125
:10034000154B00221A62144B242200219954124B9F
:1003500001229A62104B180000F0E6F9031E01D04A
:1003600000F0A4F83B1D00221A603B1D80225201C0
:100370005A603B1D802252059A603A1D064B1100BF
:10038000180000F011FB031E01D000F08FF8C046EA
:10039000BD4604B080BDC0462800002000240140B6
:1003A00090B58BB000AF14243B19180014231A0029
:1003B000002101F087FA3A4B5A69394B8021090331
:1003C0000A435A61364B5A6980231B0313403B6131
:1003D0003B69334B5A69324B8021C9030A435A6146
:1003E0002F4B5A698023DB031340FB60FB682C4BC7
:1003F0005A692B4B802189020A435A61284B5A695A
:1004000080239B021340BB60BB68254B5A69244B79
:100410008021C9020A435A61214B5A698023DB02B9
:1004200013407B607B681F4B00227D21180000F089
:10043000EDFD3B19802292011A603B1900225A609F
:100440003B1900229A603B19174A1900100000F06E
:100450006DFC3B197E221A603B1900225A603B1941
:1004600000229A603A199023DB051100180000F071
:100470005DFC21007B187D221A607B1801225A60E6
:100480007B1800229A607B180022DA607B18054AEC
:100490001900100000F04AFCC046BD460BB090BDEC
:1004A00000100240000400480008004880B500AF7A
:1004B00072B6C046FEE7000080B582B000AF0F4BB9
:1004C0009A690E4B01210A439A610C4B9B690122E8
:1004D00013407B607B68094BDA69084B8021490532
:1004E0000A43DA61054BDA6980235B0513403B6000
:1004F0003B68C046BD4602B080BDC0460010024009
:1005000090B58BB000AF786014243B191800142309
:100510001A00002101F0D6F97B681B68194A934242
:100520002BD1194B9A69184B802189000A439A6193
:10053000154B9A6980239B0013403B613B69124B2A
:100540005A69114B802189020A435A610E4B5A693C
:1005500080239B021340FB60FB683B1901221A6059
:100560003B1903225A603B1900229A603A199023E2
:10057000DB051100180000F0D9FBC046BD460BB0EA
:1005800090BDC046002401400010024080B500AF7D
:10059000FEE780B500AFFEE780B500AFC046BD46C0
:1005A00080BD80B500AFC046BD4680BD80B500AF00
:1005B00000F07AF8C046BD4680BD80B500AFC046A9
:1005C000BD4680BD0D488546FFF7F7FF0C480D4935
:1005D0000D4A002302E0D458C4500433C4188C429E
:1005E000F9D30A4A0A4C002301E013600432A24204
:1005F000FBD301F06FF9FFF713FEFEE700200020A8
:10060000000000200C0000206C1900080C000020E5
:100610006C000020FEE7000080B500AF074B1A68B1
:10062000064B10210A431A60032000F009F8FFF777
:1006300043FF00231800BD4680BDC0460020024095
:1006400090B583B000AF7860144B1C68144B1B78D6
:100650001900FA239800FFF757FD03001900200046
:10066000FFF752FD0300180000F053FB031E01D0FA
:1006700001230FE07B68032B0BD8796801235B42D1
:100680000022180000F030FB064B7A681A60002345
:1006900000E001231800BD4603B090BD000000201B
:1006A000080000200400002080B500AF054B1B7837
:1006B0001A00054B1B68D218034B1A60C046BD4692
:1006C00080BDC046080000206800002080B500AF53
:1006D000024B1B681800BD4680BDC0466800002064
:1006E00080B584B000AF7860FFF7F0FF0300BB6017
:1006F0007B68FB60FB68013305D00A4B1B781A004E
:10070000FB689B18FB60C046FFF7E0FF0200BB6878
:10071000D31AFA689A42F7D8C046C046BD4604B01C
:1007200080BDC0460800002080B584B000AF78606E
:100730000F23FB1800221A700023BB607B68002B7C
:1007400001D1012325E17B689B6B002B0AD17B68DB
:100750000022DA637B683422002199547B681800F8
:10076000FFF7CEFE7B689B6B1022134000D003E1A5
:100770000F23FB181B78002B00D0FDE07B681B6863
:100780009B680422134000D0F6E07B689B6B834A91
:10079000134002221A437B689A637B681B689B683C
:1007A00003221340012B12D17B681B681B680122B6
:1007B0001340012B09D07B681B68DA6880231B0279
:1007C0001A4080231B029A4201D1012300E000233A
:1007D000002B16D17B681B68DB6818229343190035
:1007E0007B689A687B681B680A43DA607B681B68D1
:1007F0001B699B0099087B685A687B681B680A43E1
:100800001A617B681B68DA687B681B6864490A4068
:10081000DA607B681B7E9A037B685B7EDB031A438E
:100820007B689B7E5B031A437B689B6A012B02D02B
:1008300080235B0100E000231A437B68DB681A43D6
:100840007B681B69022B01D1042300E000231A43BB
:100850007B6824215B5C5B001343BA681343BB6075
:100860007B68DB7E012B15D17B689B7E002B05D13D
:10087000BB68802252021343BB600BE07B689B6B1A
:1008800020221A437B689A637B68DB6B01221A4340
:100890007B68DA637B68DA69C223FF339A4207D048
:1008A0007B68DA697B681B6A1343BA681343BB60D1
:1008B0007B681B68D9687B681B68BA680A43DA6082
:1008C0007B68DA6A80235B059A421BD07B68DB6A0F
:1008D000012B17D07B68DB6A022B13D07B68DB6AA5
:1008E000032B0FD07B68DB6A042B0BD07B68DB6AA1
:1008F000052B07D07B68DB6A062B03D07B68DB6A9D
:10090000072B12D17B681B685A697B681B6807211B
:100910008A435A617B681B6859697B68DB6A0722D6
:100920001A407B681B680A435A617B681B68DB6856
:100930001C4A1340BA689A420BD17B680022DA63E2
:100940007B689B6B0322934301221A437B689A6363
:100950001CE07B689B6B1222934310221A437B6836
:100960009A637B68DB6B01221A437B68DA630F238F
:10097000FB1801221A7009E07B689B6B10221A4356
:100980007B689A630F23FB1801221A700F23FB1850
:100990001B781800BD4604B080BDC046FDFEFFFFB9
:1009A0001902FEFFE7FF3F8380B584B000AF786097
:1009B00039600F23FB1800221A700023BB607B688C
:1009C000DA6A80235B059A4211D07B68DB6A012BCF
:1009D0000DD07B68DB6A022B09D07B68DB6A032BB6
:1009E00005D07B68DB6A042B01D07B68DB6A7B68FF
:1009F00034229B5C012B01D10223D0E07B6834229E
:100A0000012199547B681B689B680422134000D025
:100A1000B4E03B685B68644A934200D182E07B6843
:100A20001B68996A3B681B6801229A407B681B68B7
:100A30000A439A627B68DA6A80235B059A4237D060
:100A40007B68DB6A012B33D07B68DB6A022B2FD0FB
:100A50007B68DB6A032B2BD07B68DB6A042B27D0F7
:100A60007B68DB6A052B23D07B68DB6A062B1FD0F3
:100A70007B68DB6A072B1BD03B689A687B681B6826
:100A80005B6907210B409A4212D07B681B685A6948
:100A90007B681B6807218A435A617B681B68596918
:100AA0003B689B6807221A407B681B680A435A61AF
:100AB0003B681B68102B07D03B681B68112B03D0C9
:100AC0003B681B68122B63D1384B19683B681B6865
:100AD000102B09D03B681B68112B02D18023DB034C
:100AE00004E080235B0401E080231B042F4A0B43B6
:100AF00013603B681B68102B4AD12D4B1B682D4996
:100B00001800FFF701FB03001A0013009B009B185D
:100B10005B00BB6002E0BB68013BBB60BB68002BB5
:100B2000F9D135E07B681B689A6A3B681B68012134
:100B300099400B00D9437B681B680A409A623B6866
:100B40001B68102B07D03B681B68112B03D03B6838
:100B50001B68122B1CD1154B19683B681B68102BA6
:100B600007D03B681B68112B01D1134B02E0134BDC
:100B700000E0134B0D4A0B40136009E07B689B6B50
:100B800020221A437B689A630F23FB1801221A70F4
:100B90007B683422002199540F23FB181B7818001E
:100BA000BD4604B080BDC0460110000008270140CA
:100BB0000000002040420F00FFFFBFFFFFFFFFFECD
:100BC000FFFF7FFF90B583B000AF02003960FB1DCF
:100BD0001A70FB1D1B787F2B28D82F4AFB1D1B7812
:100BE0005BB29B08C0339B009B58FA1D1278110022
:100BF00003220A40D200FF2191400A00D2431A404A
:100C000011003B689B01FF221A40FB1D1B78180056
:100C100003230340DB009A401F48FB1D1B785BB297
:100C20009B080A43C0339B001A5031E01B4AFB1D4E
:100C30001B7819000F230B40083B9B0806339B00D1
:100C4000D31804331B68FA1D1278110003220A40DE
:100C5000D200FF2191400A00D2431A4011003B68A4
:100C60009B01FF221A40FB1D1B7818000323034041
:100C7000DB009A400948FB1D1B781C000F23234012
:100C8000083B9B080A4306339B00C31804331A60D1
:100C9000C046BD4603B090BD00E100E000ED00E0BD
:100CA00080B582B000AF78607B685A1E80235B04F9
:100CB0009A4201D3012310E00A4B7A68013A5A6044
:100CC00001235B4203211800FFF77CFF054B002244
:100CD0009A60044B07221A6000231800BD4602B038
:100CE00080BDC04610E000E080B584B000AFB960C0
:100CF0007A600F217B18021C1A70BA687B181B7867
:100D00005BB211001800FFF75DFFC046BD4604B09E
:100D100080BD80B582B000AF78607B681800FFF7B7
:100D2000BFFF03001800BD4602B080BD80B586B08D
:100D300000AF7860396000237B614FE13B681B683E
:100D400001217A6991400A001340FB60FB68002B87
:100D500000D140E13B685B6803221340012B05D0C2
:100D60003B685B6803221340022B30D17B689B6891
:100D70003B617B695B0003229A401300DA433B69C5
:100D800013403B613B68DA687B695B009A40130063
:100D90003A6913433B617B683A699A607B685B6898
:100DA0003B6101227B699A401300DA433B6913409F
:100DB0003B613B685B681B0901221A407B699A40D2
:100DC00013003A6913433B617B683A695A603B6898
:100DD0005B6803221340032B17D07B68DB683B6101
:100DE0007B695B0003229A401300DA433B6913409E
:100DF0003B613B689A687B695B009A4013003A69E3
:100E000013433B617B683A69DA603B685B680322A5
:100E10001340022B23D17B69DA087B6808329200E9
:100E2000D3583B617B69072213409B000F229A40F5
:100E30001300DA433B6913403B613B681A697B69E5
:100E400007210B409B009A4013003A6913433B6112
:100E50007B69DA087B68083292003969D1507B6877
:100E60001B683B617B695B0003229A401300DA43F5
:100E70003B6913403B613B685B6803221A407B6916
:100E80005B009A4013003A6913433B617B683A69FF
:100E90001A603B685A68C0239B02134000D19AE055
:100EA000544B9A69534B01210A439A61514B9B69F8
:100EB00001221340BB60BB684F4A7B699B08023329
:100EC0009B009B583B617B69032213409B000F22D0
:100ED0009A401300DA433B6913403B617A689023E0
:100EE000DB059A4213D07B68444A93420DD07B685D
:100EF000434A934207D07B68424A934201D103237D
:100F000006E0052304E0022302E0012300E00023C1
:100F10007A6903210A40920093403A6913433B6186
:100F200035497B699B0802339B003A695A50364B1E
:100F30009B683B61FB68DA433B6913403B613B685C
:100F40005A6880235B03134003D03A69FB6813435C
:100F50003B612D4B3A699A602B4BDB683B61FB6828
:100F6000DA433B6913403B613B685A6880239B032B
:100F7000134003D03A69FB6813433B61224B3A6943
:100F8000DA60214B5B683B61FB68DA433B691340E5
:100F90003B613B685A6880239B02134003D03A6947
:100FA000FB6813433B61184B3A695A60164B1B6848
:100FB0003B61FB68DA433B6913403B613B685A681D
:100FC00080235B02134003D03A69FB6813433B6103
:100FD0000D4B3A691A607B6901337B613B681A6883
:100FE0007B69DA40131E00D0A8E6C046C046BD4665
:100FF00006B080BD0010024000000140000400481F
:1010000000080048000C00480004014080B582B090
:1010100000AF786008001100BB1C021C1A807B1C0A
:101020000A1C1A707B1C1B78002B04D0BB1C1A886E
:101030007B689A6103E0BB1C1A887B689A62C04691
:10104000BD4602B080BD000080B588B000AF7860BA
:101050007B68002B01D1012301E37B681B6801221F
:10106000134000D18DE0C34B5B680C221340042B6E
:101070000ED0C04B5B680C221340082B16D1BD4B21
:101080005A6880235B021A4080235B029A420DD18A
:10109000B84B1A6880239B02134000D170E07B6834
:1010A0005B68002B00D06BE00123D8E27B685B68B3
:1010B000012B07D1AF4B1A68AE4B802149020A437E
:1010C0001A602FE07B685B68002B0CD1A94B1A6873
:1010D000A84BA9490A401A60A64B1A68A54BA74914
:1010E0000A401A601EE07B685B68052B0ED1A14B9D
:1010F0001A68A04B8021C9020A431A609D4B1A68E6
:101100009C4B802149020A431A600BE0994B1A68F4
:10111000984B99490A401A60964B1A68954B974923
:101120000A401A607B685B68002B14D0FFF7CEFA88
:101130000300BB6108E0FFF7C9FA0200BB69D31ADC
:10114000642B01D903238AE28A4B1A6880239B020D
:101150001340F0D015E0FFF7B9FA0300BB6108E0D7
:10116000FFF7B4FA0200BB69D31A642B01D9032339
:1011700075E2804B1A6880239B021340F0D100E097
:10118000C0467B681B680222134000D169E0794B9E
:101190005B680C2213400BD0764B5B680C2213402B
:1011A000082B1CD1734B5A6880235B02134016D165
:1011B000704B1B680222134005D07B68DB68012B53
:1011C00001D001234BE26B4B1B68F82293431900BB
:1011D0007B681B69DA00674B0A431A6041E07B6851
:1011E000DB68002B24D0634B1A68624B01210A4351
:1011F0001A60FFF76BFA0300BB6108E0FFF766FABD
:101200000200BB69D31A022B01D9032327E2594BF1
:101210001B6802221340F1D0564B1B68F8229343FF
:1012200019007B681B69DA00524B0A431A6018E008
:10123000504B1A684F4B01218A431A60FFF746FA58
:101240000300BB6108E0FFF741FA0200BB69D31A53
:10125000022B01D9032302E2464B1B6802221340F2
:10126000F1D17B681B680822134036D07B68DB69AC
:10127000002B19D03F4B5A6A3E4B01210A435A6258
:10128000FFF724FA0300BB6108E0FFF71FFA020032
:10129000BB69D31A022B01D90323E0E1354B5B6A0A
:1012A00002221340F1D018E0324B5A6A314B01212F
:1012B0008A435A62FFF70AFA0300BB6108E0FFF7AE
:1012C00005FA0200BB69D31A022B01D90323C6E138
:1012D000284B5B6A02221340F1D17B681B68042211
:1012E000134000D1B4E01F203B1800221A70214B9C
:1012F000DA6980235B05134010D11E4BDA691D4B60
:10130000802149050A43DA611A4BDA6980235B05BB
:101310001340FB60FB683B1801221A70184B1A68D7
:1013200080235B0013401AD1154B1A68144B80219F
:1013300049000A431A60FFF7C9F90300BB6108E0DE
:10134000FFF7C4F90200BB69D31A642B01D9032348
:1013500085E10B4B1A6880235B001340F0D07B685B
:101360009B68012B0ED1034B1A6A024B01210A43E1
:101370001A6235E000100240FFFFFEFFFFFFFBFF97
:10138000007000407B689B68002B0CD1B64B1A6A3A
:10139000B54B01218A431A62B34B1A6AB24B04213E
:1013A0008A431A621CE07B689B68052B0CD1AE4B0C
:1013B0001A6AAD4B04210A431A62AB4B1A6AAA4B54
:1013C00001210A431A620BE0A74B1A6AA64B0121BE
:1013D0008A431A62A44B1A6AA34B04218A431A62F5
:1013E0007B689B68002B14D0FFF770F90300BB618A
:1013F00009E0FFF76BF90200BB69D31A9B4A9342DD
:1014000001D903232BE1984B1B6A02221340F0D031
:1014100013E0FFF75BF90300BB6109E0FFF756F942
:101420000200BB69D31A914A934201D9032316E102
:101430008D4B1B6A02221340F0D11F23FB181B782F
:10144000012B05D1884BDA69874B89490A40DA615B
:101450007B681B681022134063D07B685B69012B9B
:101460002AD1814B5A6B804B04210A435A637E4B2D
:101470005A6B7D4B01210A435A63FFF727F903009A
:10148000BB6108E0FFF722F90200BB69D31A022B07
:1014900001D90323E3E0744B5B6B02221340F1D0CC
:1014A000714B5B6BF822934319007B689B69DA00F0
:1014B0006D4B0A435A6334E07B685B69053311D195
:1014C000694B5A6B684B04218A435A63664B5B6BCA
:1014D000F822934319007B689B69DA00624B0A4348
:1014E0005A631EE0604B5A6B5F4B04210A435A63F8
:1014F0005D4B5A6B5C4B01218A435A63FFF7E6F858
:101500000300BB6108E0FFF7E1F80200BB69D31AF2
:10151000022B01D90323A2E0534B5B6B0222134041
:10152000F1D17B681B6A002B00D197E04E4B5B68C2
:101530000C221340082B00D16BE07B681B6A022B46
:101540004CD1494B1A68484B4A490A401A60FFF788
:10155000BDF80300BB6108E0FFF7B8F80200BB6903
:10156000D31A022B01D9032379E03F4B1A68802359
:101570009B041340F0D13C4BDB6A0F2293431900CC
:101580007B68DA6A384B0A43DA62374B5B683A4A5F
:10159000134019007B689A6A7B685B6A1A43324B76
:1015A0000A435A60304B1A682F4B802149040A4382
:1015B0001A60FFF78BF80300BB6108E0FFF786F8BD
:1015C0000200BB69D31A022B01D9032347E0264B43
:1015D0001A6880239B041340F0D03FE0224B1A6826
:1015E000214B24490A401A60FFF770F80300BB61E1
:1015F00008E0FFF76BF80200BB69D31A022B01D990
:1016000003232CE0184B1A6880239B041340F0D16D
:1016100024E07B681B6A012B01D101231FE0124BE0
:101620005B687B61104BDB6A3B617A6980235B02FC
:101630001A407B685B6A9A420ED13B690F221A40BE
:101640007B68DB6A9A4207D17A69F0239B031A40D0
:101650007B689B6A9A4201D0012300E000231800B6
:10166000BD4608B080BDC04600100240881300008F
:10167000FFFFFFEFFFFFFFFEFFFFC2FF80B584B05B
:1016800000AF786039607B68002B01D10123B3E0A3
:101690005B4B1B68012213403A689A4211D9584BA0
:1016A0001B68012293431900554B3A680A431A609C
:1016B000534B1B68012213403A689A4201D0012320
:1016C0009AE07B681B680222134015D07B681B6878
:1016D0000422134006D04B4B5A684A4BE021C90004
:1016E0000A435A60474B5B68F022934319007B68BA
:1016F0009A68444B0A435A607B681B680122134076
:1017000040D07B685B68012B07D13E4B1A68802371
:101710009B02134014D101236EE07B685B68022BAF
:1017200007D1384B1A6880239B04134008D101234A
:1017300062E0344B1B680222134001D101235BE0BD
:10174000304B5B680322934319007B685A682D4B2A
:101750000A435A60FEF7BAFF0300FB6009E0FEF798
:10176000B5FF0200FB68D31A274A934201D903232D
:1017700042E0244B5B680C221A407B685B689B004C
:101780009A42ECD11E4B1B68012213403A689A42E0
:1017900011D21B4B1B68012293431900184B3A6866
:1017A0000A431A60164B1B68012213403A689A429A
:1017B00001D0012320E07B681B680422134009D07C
:1017C000104B5B68114A134019007B68DA680D4BB7
:1017D0000A435A6000F020F801000A4B5B681B09BD
:1017E0000F2213400A4AD35C0A00DA40094B1A6000
:1017F0000320FEF725FF00231800BD4604B080BD7E
:10180000002002400010024088130000FFF8FFFF94
:10181000341900080000002080B586B000AF002316
:10182000FB600023BB6000237B6100237B600023FF
:101830003B61204B5B68FB60FB680C221340042B70
:1018400002D0082B03D02CE01B4B3B612CE0FB6843
:101850009B0C0F221340194AD35C7B60154BDB6A4B
:101860000F221340164AD35CBB60FA6880235B02E8
:10187000134009D0B9681048FEF746FC03001A006F
:101880007B6853437B6109E079680A005201521A70
:1018900093019B1ADB005B181B027B617B693B6138
:1018A00002E0054B3B61C0463B691800BD4606B0EF
:1018B00080BDC0460010024000127A0044190008A2
:1018C0005419000803008218934200D17047197020
:1018D0000133F9E770B500260C4C0D4D641BA410C4
:1018E000A64209D1002600F019F80A4C0A4D641BE3
:1018F000A410A64205D170BDB300EB58984701363D
:10190000EEE7B300EB5898470136F2E76419000898
:10191000641900086819000864190008F8B5C04681
:10192000F8BC08BC9E467047F8B5C046F8BC08BC79
:041930009E46704718
:10193400000000000000000001020304060708097B
:1019440002030405060708090A0B0C0D0E0F1010FC
:101954000102030405060708090A0B0C0D0E0F10FB
:04196400E90000088E
:04196800C1000008B2
:0C196C0000127A000400000001000000DE
:04000005080005C525
:00000001FF
